{
  "contractName": "Mileage",
  "abi": [
    {
      "inputs": [],
      "stateMutability": "nonpayable",
      "type": "constructor"
    },
    {
      "inputs": [
        {
          "internalType": "address",
          "name": "_address",
          "type": "address"
        }
      ],
      "name": "add_user",
      "outputs": [],
      "stateMutability": "nonpayable",
      "type": "function"
    },
    {
      "inputs": [
        {
          "internalType": "address",
          "name": "_address",
          "type": "address"
        },
        {
          "internalType": "uint256",
          "name": "_amount",
          "type": "uint256"
        }
      ],
      "name": "add_mileage",
      "outputs": [],
      "stateMutability": "nonpayable",
      "type": "function"
    },
    {
      "inputs": [
        {
          "internalType": "address",
          "name": "_sender",
          "type": "address"
        },
        {
          "internalType": "address",
          "name": "_receiver",
          "type": "address"
        },
        {
          "internalType": "uint256",
          "name": "_amount",
          "type": "uint256"
        }
      ],
      "name": "trans_milage",
      "outputs": [],
      "stateMutability": "nonpayable",
      "type": "function"
    },
    {
      "inputs": [
        {
          "internalType": "address",
          "name": "_address",
          "type": "address"
        }
      ],
      "name": "view_mileage",
      "outputs": [
        {
          "internalType": "uint256",
          "name": "",
          "type": "uint256"
        }
      ],
      "stateMutability": "view",
      "type": "function"
    },
    {
      "inputs": [],
      "name": "view_users",
      "outputs": [
        {
          "internalType": "address[]",
          "name": "",
          "type": "address[]"
        }
      ],
      "stateMutability": "view",
      "type": "function"
    }
  ],
  "bytecode": "0x608060405234801561001057600080fd5b50336000806101000a81548173ffffffffffffffffffffffffffffffffffffffff021916908373ffffffffffffffffffffffffffffffffffffffff160217905550610e09806100606000396000f3fe608060405234801561001057600080fd5b50600436106100575760003560e01c80631ec7cece1461005c5780632d581e711461008c578063b672b951146100a8578063c510a9de146100c4578063d51eac6e146100e0575b600080fd5b6100766004803603810190610071919061099b565b6100fe565b6040516100839190610c4b565b60405180910390f35b6100a660048036038101906100a1919061099b565b610264565b005b6100c260048036038101906100bd91906109c4565b610402565b005b6100de60048036038101906100d99190610a13565b6106df565b005b6100e8610855565b6040516100f59190610bc9565b60405180910390f35b60008060009054906101000a900473ffffffffffffffffffffffffffffffffffffffff1673ffffffffffffffffffffffffffffffffffffffff163373ffffffffffffffffffffffffffffffffffffffff161461018f576040517f08c379a000000000000000000000000000000000000000000000000000000000815260040161018690610beb565b60405180910390fd5b81600260008273ffffffffffffffffffffffffffffffffffffffff1673ffffffffffffffffffffffffffffffffffffffff16815260200190815260200160002060009054906101000a900460ff1661021c576040517f08c379a000000000000000000000000000000000000000000000000000000000815260040161021390610c2b565b60405180910390fd5b600160008473ffffffffffffffffffffffffffffffffffffffff1673ffffffffffffffffffffffffffffffffffffffff16815260200190815260200160002054915050919050565b60008054906101000a900473ffffffffffffffffffffffffffffffffffffffff1673ffffffffffffffffffffffffffffffffffffffff163373ffffffffffffffffffffffffffffffffffffffff16146102f2576040517f08c379a00000000000000000000000000000000000000000000000000000000081526004016102e990610beb565b60405180910390fd5b600260008273ffffffffffffffffffffffffffffffffffffffff1673ffffffffffffffffffffffffffffffffffffffff16815260200190815260200160002060009054906101000a900460ff166103ff576003819080600181540180825580915050600190039060005260206000200160009091909190916101000a81548173ffffffffffffffffffffffffffffffffffffffff021916908373ffffffffffffffffffffffffffffffffffffffff1602179055506001600260008373ffffffffffffffffffffffffffffffffffffffff1673ffffffffffffffffffffffffffffffffffffffff16815260200190815260200160002060006101000a81548160ff0219169083151502179055505b50565b60008054906101000a900473ffffffffffffffffffffffffffffffffffffffff1673ffffffffffffffffffffffffffffffffffffffff163373ffffffffffffffffffffffffffffffffffffffff1614610490576040517f08c379a000000000000000000000000000000000000000000000000000000000815260040161048790610beb565b60405180910390fd5b82600260008273ffffffffffffffffffffffffffffffffffffffff1673ffffffffffffffffffffffffffffffffffffffff16815260200190815260200160002060009054906101000a900460ff1661051d576040517f08c379a000000000000000000000000000000000000000000000000000000000815260040161051490610c2b565b60405180910390fd5b82600260008273ffffffffffffffffffffffffffffffffffffffff1673ffffffffffffffffffffffffffffffffffffffff16815260200190815260200160002060009054906101000a900460ff166105aa576040517f08c379a00000000000000000000000000000000000000000000000000000000081526004016105a190610c2b565b60405180910390fd5b82600160008773ffffffffffffffffffffffffffffffffffffffff1673ffffffffffffffffffffffffffffffffffffffff16815260200190815260200160002054101561062c576040517f08c379a000000000000000000000000000000000000000000000000000000000815260040161062390610c0b565b60405180910390fd5b82600160008773ffffffffffffffffffffffffffffffffffffffff1673ffffffffffffffffffffffffffffffffffffffff168152602001908152602001600020600082825461067b9190610d06565b9250508190555082600160008673ffffffffffffffffffffffffffffffffffffffff1673ffffffffffffffffffffffffffffffffffffffff16815260200190815260200160002060008282546106d19190610cb0565b925050819055505050505050565b60008054906101000a900473ffffffffffffffffffffffffffffffffffffffff1673ffffffffffffffffffffffffffffffffffffffff163373ffffffffffffffffffffffffffffffffffffffff161461076d576040517f08c379a000000000000000000000000000000000000000000000000000000000815260040161076490610beb565b60405180910390fd5b81600260008273ffffffffffffffffffffffffffffffffffffffff1673ffffffffffffffffffffffffffffffffffffffff16815260200190815260200160002060009054906101000a900460ff166107fa576040517f08c379a00000000000000000000000000000000000000000000000000000000081526004016107f190610c2b565b60405180910390fd5b81600160008573ffffffffffffffffffffffffffffffffffffffff1673ffffffffffffffffffffffffffffffffffffffff16815260200190815260200160002060008282546108499190610cb0565b92505081905550505050565b606060008054906101000a900473ffffffffffffffffffffffffffffffffffffffff1673ffffffffffffffffffffffffffffffffffffffff163373ffffffffffffffffffffffffffffffffffffffff16146108e5576040517f08c379a00000000000000000000000000000000000000000000000000000000081526004016108dc90610beb565b60405180910390fd5b600380548060200260200160405190810160405280929190818152602001828054801561096757602002820191906000526020600020905b8160009054906101000a900473ffffffffffffffffffffffffffffffffffffffff1673ffffffffffffffffffffffffffffffffffffffff168152602001906001019080831161091d575b5050505050905090565b60008135905061098081610da5565b92915050565b60008135905061099581610dbc565b92915050565b6000602082840312156109ad57600080fd5b60006109bb84828501610971565b91505092915050565b6000806000606084860312156109d957600080fd5b60006109e786828701610971565b93505060206109f886828701610971565b9250506040610a0986828701610986565b9150509250925092565b60008060408385031215610a2657600080fd5b6000610a3485828601610971565b9250506020610a4585828601610986565b9150509250929050565b6000610a5b8383610a67565b60208301905092915050565b610a7081610d3a565b82525050565b6000610a8182610c76565b610a8b8185610c8e565b9350610a9683610c66565b8060005b83811015610ac7578151610aae8882610a4f565b9750610ab983610c81565b925050600181019050610a9a565b5085935050505092915050565b6000610ae1602783610c9f565b91507f4f6e6c7920746865206f776e65722063616e206578656375746520746865206660008301527f756e6374696f6e000000000000000000000000000000000000000000000000006020830152604082019050919050565b6000610b47601283610c9f565b91507f4e6f7420656e6f756768206d696c6561676500000000000000000000000000006000830152602082019050919050565b6000610b87601d83610c9f565b91507f596f752061726520616e20756e7265676973746572656420757365722e0000006000830152602082019050919050565b610bc381610d6c565b82525050565b60006020820190508181036000830152610be38184610a76565b905092915050565b60006020820190508181036000830152610c0481610ad4565b9050919050565b60006020820190508181036000830152610c2481610b3a565b9050919050565b60006020820190508181036000830152610c4481610b7a565b9050919050565b6000602082019050610c606000830184610bba565b92915050565b6000819050602082019050919050565b600081519050919050565b6000602082019050919050565b600082825260208201905092915050565b600082825260208201905092915050565b6000610cbb82610d6c565b9150610cc683610d6c565b9250827fffffffffffffffffffffffffffffffffffffffffffffffffffffffffffffffff03821115610cfb57610cfa610d76565b5b828201905092915050565b6000610d1182610d6c565b9150610d1c83610d6c565b925082821015610d2f57610d2e610d76565b5b828203905092915050565b6000610d4582610d4c565b9050919050565b600073ffffffffffffffffffffffffffffffffffffffff82169050919050565b6000819050919050565b7f4e487b7100000000000000000000000000000000000000000000000000000000600052601160045260246000fd5b610dae81610d3a565b8114610db957600080fd5b50565b610dc581610d6c565b8114610dd057600080fd5b5056fea26469706673582212205f5f553ae8c705e7d8c1b928eec77d5b87c02d3742b02ba9925bd4bade40a4d564736f6c63430008000033",
  "immutableReferences": {},
  "source": "// SPDX-License-Identifier: GPL-3.0\r\npragma solidity 0.8.0;\r\n\r\ncontract Mileage {\r\n\r\n    address internal owner;\r\n\r\n    //    \r\n    constructor(){\r\n        owner = msg.sender;\r\n    }\r\n\r\n    //  mapping  \r\n    mapping(address => uint) internal mileage;\r\n    //     mapping  \r\n    mapping(address => bool) internal exists;\r\n    //     \r\n    address[] internal users;\r\n\r\n    //      modifier \r\n    modifier onlyOwner{\r\n        require(msg.sender == owner, \"Only the owner can execute the function\");\r\n        _;\r\n    }\r\n    //        modifier \r\n    modifier checkUser(\r\n        address _address\r\n    ){\r\n        require(exists[_address], \"You are an unregistered user.\");\r\n        _;\r\n    }\r\n\r\n    //    \r\n    function add_user(\r\n        address _address\r\n    ) public onlyOwner{\r\n        //    mapping  false    mapping value true \r\n        if(!exists[_address]){\r\n            users.push(_address);\r\n            exists[_address] = true;\r\n        }\r\n    }\r\n\r\n    //   \r\n    //          \r\n    function add_mileage(\r\n        address _address, \r\n        uint _amount\r\n    ) public onlyOwner checkUser(_address){\r\n            mileage[_address] += _amount;\r\n    }\r\n\r\n    //   \r\n    //          \r\n    // sender   _amount   \r\n    function trans_milage(\r\n        address _sender, \r\n        address _receiver, \r\n        uint _amount\r\n    ) public onlyOwner checkUser(_sender) checkUser(_receiver){\r\n        require(mileage[_sender] >= _amount, \"Not enough mileage\");\r\n        mileage[_sender] -= _amount;\r\n        mileage[_receiver] += _amount;\r\n    }\r\n\r\n    //   \r\n    //         \r\n    function view_mileage(\r\n        address _address\r\n    ) public onlyOwner checkUser(_address) view returns (\r\n        uint\r\n    ) {\r\n        return mileage[_address];\r\n    }\r\n\r\n    //    \r\n    //    \r\n    function view_users() public onlyOwner view returns(address[] memory){\r\n        return users;\r\n    }\r\n\r\n\r\n}",
  "sourcePath": "C:\\apps\\project\\blend\\server\\contracts\\Mileage.sol",
  "compiler": {
    "name": "solc",
    "version": "0.8.0+commit.c7dfd78e.Emscripten.clang"
  },
  "schemaVersion": "3.4.14",
  "updatedAt": "2023-07-06T02:33:58.246Z",
  "devdoc": {
    "kind": "dev",
    "methods": {},
    "version": 1
  },
  "userdoc": {
    "kind": "user",
    "methods": {},
    "version": 1
  }
}