{
  "contractName": "Mileage",
  "abi": [
    {
      "inputs": [],
      "stateMutability": "nonpayable",
      "type": "constructor"
    },
    {
      "inputs": [
        {
          "internalType": "address",
          "name": "_address",
          "type": "address"
        }
      ],
      "name": "add_user",
      "outputs": [],
      "stateMutability": "nonpayable",
      "type": "function"
    },
    {
      "inputs": [
        {
          "internalType": "address",
          "name": "_address",
          "type": "address"
        },
        {
          "internalType": "uint256",
          "name": "_amount",
          "type": "uint256"
        }
      ],
      "name": "add_mileage",
      "outputs": [],
      "stateMutability": "nonpayable",
      "type": "function"
    },
    {
      "inputs": [
        {
          "internalType": "address",
          "name": "_sender",
          "type": "address"
        },
        {
          "internalType": "address",
          "name": "_receiver",
          "type": "address"
        },
        {
          "internalType": "uint256",
          "name": "_amount",
          "type": "uint256"
        }
      ],
      "name": "trans_milage",
      "outputs": [],
      "stateMutability": "nonpayable",
      "type": "function"
    },
    {
      "inputs": [
        {
          "internalType": "address",
          "name": "_address",
          "type": "address"
        }
      ],
      "name": "view_mileage",
      "outputs": [
        {
          "internalType": "uint256",
          "name": "",
          "type": "uint256"
        }
      ],
      "stateMutability": "view",
      "type": "function",
      "constant": true
    },
    {
      "inputs": [],
      "name": "view_users",
      "outputs": [
        {
          "internalType": "address[]",
          "name": "",
          "type": "address[]"
        }
      ],
      "stateMutability": "view",
      "type": "function",
      "constant": true
    }
  ],
  "bytecode": "0x608060405234801561001057600080fd5b50336000806101000a81548173ffffffffffffffffffffffffffffffffffffffff021916908373ffffffffffffffffffffffffffffffffffffffff160217905550610e1c806100606000396000f3fe608060405234801561001057600080fd5b50600436106100575760003560e01c80631ec7cece1461005c5780632d581e711461008c578063b672b951146100a8578063c510a9de146100c4578063d51eac6e146100e0575b600080fd5b610076600480360381019061007191906109d4565b6100fe565b6040516100839190610a1a565b60405180910390f35b6100a660048036038101906100a191906109d4565b610264565b005b6100c260048036038101906100bd9190610a61565b610402565b005b6100de60048036038101906100d99190610ab4565b6106df565b005b6100e8610855565b6040516100f59190610bb2565b60405180910390f35b60008060009054906101000a900473ffffffffffffffffffffffffffffffffffffffff1673ffffffffffffffffffffffffffffffffffffffff163373ffffffffffffffffffffffffffffffffffffffff161461018f576040517f08c379a000000000000000000000000000000000000000000000000000000000815260040161018690610c57565b60405180910390fd5b81600260008273ffffffffffffffffffffffffffffffffffffffff1673ffffffffffffffffffffffffffffffffffffffff16815260200190815260200160002060009054906101000a900460ff1661021c576040517f08c379a000000000000000000000000000000000000000000000000000000000815260040161021390610cc3565b60405180910390fd5b600160008473ffffffffffffffffffffffffffffffffffffffff1673ffffffffffffffffffffffffffffffffffffffff16815260200190815260200160002054915050919050565b60008054906101000a900473ffffffffffffffffffffffffffffffffffffffff1673ffffffffffffffffffffffffffffffffffffffff163373ffffffffffffffffffffffffffffffffffffffff16146102f2576040517f08c379a00000000000000000000000000000000000000000000000000000000081526004016102e990610c57565b60405180910390fd5b600260008273ffffffffffffffffffffffffffffffffffffffff1673ffffffffffffffffffffffffffffffffffffffff16815260200190815260200160002060009054906101000a900460ff166103ff576003819080600181540180825580915050600190039060005260206000200160009091909190916101000a81548173ffffffffffffffffffffffffffffffffffffffff021916908373ffffffffffffffffffffffffffffffffffffffff1602179055506001600260008373ffffffffffffffffffffffffffffffffffffffff1673ffffffffffffffffffffffffffffffffffffffff16815260200190815260200160002060006101000a81548160ff0219169083151502179055505b50565b60008054906101000a900473ffffffffffffffffffffffffffffffffffffffff1673ffffffffffffffffffffffffffffffffffffffff163373ffffffffffffffffffffffffffffffffffffffff1614610490576040517f08c379a000000000000000000000000000000000000000000000000000000000815260040161048790610c57565b60405180910390fd5b82600260008273ffffffffffffffffffffffffffffffffffffffff1673ffffffffffffffffffffffffffffffffffffffff16815260200190815260200160002060009054906101000a900460ff1661051d576040517f08c379a000000000000000000000000000000000000000000000000000000000815260040161051490610cc3565b60405180910390fd5b82600260008273ffffffffffffffffffffffffffffffffffffffff1673ffffffffffffffffffffffffffffffffffffffff16815260200190815260200160002060009054906101000a900460ff166105aa576040517f08c379a00000000000000000000000000000000000000000000000000000000081526004016105a190610cc3565b60405180910390fd5b82600160008773ffffffffffffffffffffffffffffffffffffffff1673ffffffffffffffffffffffffffffffffffffffff16815260200190815260200160002054101561062c576040517f08c379a000000000000000000000000000000000000000000000000000000000815260040161062390610d2f565b60405180910390fd5b82600160008773ffffffffffffffffffffffffffffffffffffffff1673ffffffffffffffffffffffffffffffffffffffff168152602001908152602001600020600082825461067b9190610d7e565b9250508190555082600160008673ffffffffffffffffffffffffffffffffffffffff1673ffffffffffffffffffffffffffffffffffffffff16815260200190815260200160002060008282546106d19190610db2565b925050819055505050505050565b60008054906101000a900473ffffffffffffffffffffffffffffffffffffffff1673ffffffffffffffffffffffffffffffffffffffff163373ffffffffffffffffffffffffffffffffffffffff161461076d576040517f08c379a000000000000000000000000000000000000000000000000000000000815260040161076490610c57565b60405180910390fd5b81600260008273ffffffffffffffffffffffffffffffffffffffff1673ffffffffffffffffffffffffffffffffffffffff16815260200190815260200160002060009054906101000a900460ff166107fa576040517f08c379a00000000000000000000000000000000000000000000000000000000081526004016107f190610cc3565b60405180910390fd5b81600160008573ffffffffffffffffffffffffffffffffffffffff1673ffffffffffffffffffffffffffffffffffffffff16815260200190815260200160002060008282546108499190610db2565b92505081905550505050565b606060008054906101000a900473ffffffffffffffffffffffffffffffffffffffff1673ffffffffffffffffffffffffffffffffffffffff163373ffffffffffffffffffffffffffffffffffffffff16146108e5576040517f08c379a00000000000000000000000000000000000000000000000000000000081526004016108dc90610c57565b60405180910390fd5b600380548060200260200160405190810160405280929190818152602001828054801561096757602002820191906000526020600020905b8160009054906101000a900473ffffffffffffffffffffffffffffffffffffffff1673ffffffffffffffffffffffffffffffffffffffff168152602001906001019080831161091d575b5050505050905090565b600080fd5b600073ffffffffffffffffffffffffffffffffffffffff82169050919050565b60006109a182610976565b9050919050565b6109b181610996565b81146109bc57600080fd5b50565b6000813590506109ce816109a8565b92915050565b6000602082840312156109ea576109e9610971565b5b60006109f8848285016109bf565b91505092915050565b6000819050919050565b610a1481610a01565b82525050565b6000602082019050610a2f6000830184610a0b565b92915050565b610a3e81610a01565b8114610a4957600080fd5b50565b600081359050610a5b81610a35565b92915050565b600080600060608486031215610a7a57610a79610971565b5b6000610a88868287016109bf565b9350506020610a99868287016109bf565b9250506040610aaa86828701610a4c565b9150509250925092565b60008060408385031215610acb57610aca610971565b5b6000610ad9858286016109bf565b9250506020610aea85828601610a4c565b9150509250929050565b600081519050919050565b600082825260208201905092915050565b6000819050602082019050919050565b610b2981610996565b82525050565b6000610b3b8383610b20565b60208301905092915050565b6000602082019050919050565b6000610b5f82610af4565b610b698185610aff565b9350610b7483610b10565b8060005b83811015610ba5578151610b8c8882610b2f565b9750610b9783610b47565b925050600181019050610b78565b5085935050505092915050565b60006020820190508181036000830152610bcc8184610b54565b905092915050565b600082825260208201905092915050565b7f4f6e6c7920746865206f776e65722063616e206578656375746520746865206660008201527f756e6374696f6e00000000000000000000000000000000000000000000000000602082015250565b6000610c41602783610bd4565b9150610c4c82610be5565b604082019050919050565b60006020820190508181036000830152610c7081610c34565b9050919050565b7f596f752061726520616e20756e7265676973746572656420757365722e000000600082015250565b6000610cad601d83610bd4565b9150610cb882610c77565b602082019050919050565b60006020820190508181036000830152610cdc81610ca0565b9050919050565b7f4e6f7420656e6f756768206d696c656167650000000000000000000000000000600082015250565b6000610d19601283610bd4565b9150610d2482610ce3565b602082019050919050565b60006020820190508181036000830152610d4881610d0c565b9050919050565b7f4e487b7100000000000000000000000000000000000000000000000000000000600052601160045260246000fd5b6000610d8982610a01565b9150610d9483610a01565b9250828203905081811115610dac57610dab610d4f565b5b92915050565b6000610dbd82610a01565b9150610dc883610a01565b9250828201905080821115610de057610ddf610d4f565b5b9291505056fea264697066735822122016bc0bfdfe9987ff676838c05da398edb13c70aae91548cd0b64b06098ff642b64736f6c63430008130033",
  "immutableReferences": {},
  "source": "// SPDX-License-Identifier: GPL-3.0\r\npragma solidity 0.8.19;\r\n\r\ncontract Mileage {\r\n\r\n    address internal owner;\r\n\r\n    //    \r\n    constructor(){\r\n        owner = msg.sender;\r\n    }\r\n\r\n    //  mapping  \r\n    mapping(address => uint) internal mileage;\r\n    //     mapping  \r\n    mapping(address => bool) internal exists;\r\n    //     \r\n    address[] internal users;\r\n\r\n    //      modifier \r\n    modifier onlyOwner{\r\n        require(msg.sender == owner, \"Only the owner can execute the function\");\r\n        _;\r\n    }\r\n    //        modifier \r\n    modifier checkUser(\r\n        address _address\r\n    ){\r\n        require(exists[_address], \"You are an unregistered user.\");\r\n        _;\r\n    }\r\n\r\n    //    \r\n    function add_user(\r\n        address _address\r\n    ) public onlyOwner{\r\n        //    mapping  false    mapping value true \r\n        if(!exists[_address]){\r\n            users.push(_address);\r\n            exists[_address] = true;\r\n        }\r\n    }\r\n\r\n    //   \r\n    //          \r\n    function add_mileage(\r\n        address _address, \r\n        uint _amount\r\n    ) public onlyOwner checkUser(_address){\r\n            mileage[_address] += _amount;\r\n    }\r\n\r\n    //   \r\n    //          \r\n    // sender   _amount   \r\n    function trans_milage(\r\n        address _sender, \r\n        address _receiver, \r\n        uint _amount\r\n    ) public onlyOwner checkUser(_sender) checkUser(_receiver){\r\n        require(mileage[_sender] >= _amount, \"Not enough mileage\");\r\n        mileage[_sender] -= _amount;\r\n        mileage[_receiver] += _amount;\r\n    }\r\n\r\n    //   \r\n    //         \r\n    function view_mileage(\r\n        address _address\r\n    ) public onlyOwner checkUser(_address) view returns (\r\n        uint\r\n    ) {\r\n        return mileage[_address];\r\n    }\r\n\r\n    //        \r\n    //    \r\n    function view_users() public onlyOwner view returns(address[] memory){\r\n        return users;\r\n    }\r\n\r\n\r\n}",
  "sourcePath": "C:\\apps\\project\\blend\\server\\contracts\\Mileage.sol",
  "compiler": {
    "name": "solc",
    "version": "0.8.19+commit.7dd6d404.Emscripten.clang"
  },
  "schemaVersion": "3.4.14",
  "updatedAt": "2023-07-10T00:31:58.469Z",
  "networkType": "ethereum",
  "devdoc": {
    "kind": "dev",
    "methods": {},
    "version": 1
  },
  "userdoc": {
    "kind": "user",
    "methods": {},
    "version": 1
  }
}